{
  "_format": "hh-sol-artifact-1",
  "contractName": "NetSepio",
  "sourceName": "contracts/NetSepio.sol",
  "abi": [
    {
      "inputs": [
        {
          "internalType": "string",
          "name": "name",
          "type": "string"
        },
        {
          "internalType": "string",
          "name": "symbol",
          "type": "string"
        }
      ],
      "stateMutability": "nonpayable",
      "type": "constructor"
    },
    {
      "anonymous": false,
      "inputs": [
        {
          "indexed": true,
          "internalType": "address",
          "name": "owner",
          "type": "address"
        },
        {
          "indexed": true,
          "internalType": "address",
          "name": "approved",
          "type": "address"
        },
        {
          "indexed": true,
          "internalType": "uint256",
          "name": "tokenId",
          "type": "uint256"
        }
      ],
      "name": "Approval",
      "type": "event"
    },
    {
      "anonymous": false,
      "inputs": [
        {
          "indexed": true,
          "internalType": "address",
          "name": "owner",
          "type": "address"
        },
        {
          "indexed": true,
          "internalType": "address",
          "name": "operator",
          "type": "address"
        },
        {
          "indexed": false,
          "internalType": "bool",
          "name": "approved",
          "type": "bool"
        }
      ],
      "name": "ApprovalForAll",
      "type": "event"
    },
    {
      "anonymous": false,
      "inputs": [
        {
          "indexed": false,
          "internalType": "address",
          "name": "account",
          "type": "address"
        }
      ],
      "name": "Paused",
      "type": "event"
    },
    {
      "anonymous": false,
      "inputs": [
        {
          "indexed": true,
          "internalType": "address",
          "name": "receiver",
          "type": "address"
        },
        {
          "indexed": true,
          "internalType": "uint256",
          "name": "tokenId",
          "type": "uint256"
        },
        {
          "indexed": false,
          "internalType": "string",
          "name": "category",
          "type": "string"
        },
        {
          "indexed": false,
          "internalType": "string",
          "name": "domainAddress",
          "type": "string"
        },
        {
          "indexed": false,
          "internalType": "string",
          "name": "siteURL",
          "type": "string"
        },
        {
          "indexed": false,
          "internalType": "string",
          "name": "siteType",
          "type": "string"
        },
        {
          "indexed": false,
          "internalType": "string",
          "name": "siteTag",
          "type": "string"
        },
        {
          "indexed": false,
          "internalType": "string",
          "name": "siteSafety",
          "type": "string"
        },
        {
          "indexed": false,
          "internalType": "string",
          "name": "metadataURI",
          "type": "string"
        }
      ],
      "name": "ReviewCreated",
      "type": "event"
    },
    {
      "anonymous": false,
      "inputs": [
        {
          "indexed": true,
          "internalType": "address",
          "name": "ownerOrApproved",
          "type": "address"
        },
        {
          "indexed": true,
          "internalType": "uint256",
          "name": "tokenId",
          "type": "uint256"
        }
      ],
      "name": "ReviewDeleted",
      "type": "event"
    },
    {
      "anonymous": false,
      "inputs": [
        {
          "indexed": true,
          "internalType": "address",
          "name": "ownerOrApproved",
          "type": "address"
        },
        {
          "indexed": true,
          "internalType": "uint256",
          "name": "tokenId",
          "type": "uint256"
        },
        {
          "indexed": false,
          "internalType": "string",
          "name": "oldInfoHash",
          "type": "string"
        },
        {
          "indexed": false,
          "internalType": "string",
          "name": "newInfoHash",
          "type": "string"
        }
      ],
      "name": "ReviewUpdated",
      "type": "event"
    },
    {
      "anonymous": false,
      "inputs": [
        {
          "indexed": true,
          "internalType": "bytes32",
          "name": "role",
          "type": "bytes32"
        },
        {
          "indexed": true,
          "internalType": "bytes32",
          "name": "previousAdminRole",
          "type": "bytes32"
        },
        {
          "indexed": true,
          "internalType": "bytes32",
          "name": "newAdminRole",
          "type": "bytes32"
        }
      ],
      "name": "RoleAdminChanged",
      "type": "event"
    },
    {
      "anonymous": false,
      "inputs": [
        {
          "indexed": true,
          "internalType": "bytes32",
          "name": "role",
          "type": "bytes32"
        },
        {
          "indexed": true,
          "internalType": "address",
          "name": "account",
          "type": "address"
        },
        {
          "indexed": true,
          "internalType": "address",
          "name": "sender",
          "type": "address"
        }
      ],
      "name": "RoleGranted",
      "type": "event"
    },
    {
      "anonymous": false,
      "inputs": [
        {
          "indexed": true,
          "internalType": "bytes32",
          "name": "role",
          "type": "bytes32"
        },
        {
          "indexed": true,
          "internalType": "address",
          "name": "account",
          "type": "address"
        },
        {
          "indexed": true,
          "internalType": "address",
          "name": "sender",
          "type": "address"
        }
      ],
      "name": "RoleRevoked",
      "type": "event"
    },
    {
      "anonymous": false,
      "inputs": [
        {
          "indexed": true,
          "internalType": "address",
          "name": "from",
          "type": "address"
        },
        {
          "indexed": true,
          "internalType": "address",
          "name": "to",
          "type": "address"
        },
        {
          "indexed": true,
          "internalType": "uint256",
          "name": "tokenId",
          "type": "uint256"
        }
      ],
      "name": "Transfer",
      "type": "event"
    },
    {
      "anonymous": false,
      "inputs": [
        {
          "indexed": false,
          "internalType": "address",
          "name": "account",
          "type": "address"
        }
      ],
      "name": "Unpaused",
      "type": "event"
    },
    {
      "inputs": [],
      "name": "DEFAULT_ADMIN_ROLE",
      "outputs": [
        {
          "internalType": "bytes32",
          "name": "",
          "type": "bytes32"
        }
      ],
      "stateMutability": "view",
      "type": "function"
    },
    {
      "inputs": [],
      "name": "NETSEPIO_ADMIN_ROLE",
      "outputs": [
        {
          "internalType": "bytes32",
          "name": "",
          "type": "bytes32"
        }
      ],
      "stateMutability": "view",
      "type": "function"
    },
    {
      "inputs": [],
      "name": "NETSEPIO_MODERATOR_ROLE",
      "outputs": [
        {
          "internalType": "bytes32",
          "name": "",
          "type": "bytes32"
        }
      ],
      "stateMutability": "view",
      "type": "function"
    },
    {
      "inputs": [],
      "name": "NETSEPIO_VOTER_ROLE",
      "outputs": [
        {
          "internalType": "bytes32",
          "name": "",
          "type": "bytes32"
        }
      ],
      "stateMutability": "view",
      "type": "function"
    },
    {
      "inputs": [
        {
          "internalType": "uint256",
          "name": "",
          "type": "uint256"
        }
      ],
      "name": "Reviews",
      "outputs": [
        {
          "internalType": "string",
          "name": "category",
          "type": "string"
        },
        {
          "internalType": "string",
          "name": "domainAddress",
          "type": "string"
        },
        {
          "internalType": "string",
          "name": "siteURL",
          "type": "string"
        },
        {
          "internalType": "string",
          "name": "siteType",
          "type": "string"
        },
        {
          "internalType": "string",
          "name": "siteTag",
          "type": "string"
        },
        {
          "internalType": "string",
          "name": "siteSafety",
          "type": "string"
        },
        {
          "internalType": "string",
          "name": "infoHash",
          "type": "string"
        }
      ],
      "stateMutability": "view",
      "type": "function"
    },
    {
      "inputs": [
        {
          "internalType": "address",
          "name": "to",
          "type": "address"
        },
        {
          "internalType": "uint256",
          "name": "tokenId",
          "type": "uint256"
        }
      ],
      "name": "approve",
      "outputs": [],
      "stateMutability": "nonpayable",
      "type": "function"
    },
    {
      "inputs": [
        {
          "internalType": "address",
          "name": "owner",
          "type": "address"
        }
      ],
      "name": "balanceOf",
      "outputs": [
        {
          "internalType": "uint256",
          "name": "",
          "type": "uint256"
        }
      ],
      "stateMutability": "view",
      "type": "function"
    },
    {
      "inputs": [
        {
          "internalType": "string",
          "name": "category",
          "type": "string"
        },
        {
          "internalType": "string",
          "name": "domainAddress",
          "type": "string"
        },
        {
          "internalType": "string",
          "name": "siteURL",
          "type": "string"
        },
        {
          "internalType": "string",
          "name": "siteType",
          "type": "string"
        },
        {
          "internalType": "string",
          "name": "siteTag",
          "type": "string"
        },
        {
          "internalType": "string",
          "name": "siteSafety",
          "type": "string"
        },
        {
          "internalType": "string",
          "name": "metadataURI",
          "type": "string"
        }
      ],
      "name": "createReview",
      "outputs": [],
      "stateMutability": "nonpayable",
      "type": "function"
    },
    {
      "inputs": [
        {
          "internalType": "string",
          "name": "category",
          "type": "string"
        },
        {
          "internalType": "string",
          "name": "domainAddress",
          "type": "string"
        },
        {
          "internalType": "string",
          "name": "siteURL",
          "type": "string"
        },
        {
          "internalType": "string",
          "name": "siteType",
          "type": "string"
        },
        {
          "internalType": "string",
          "name": "siteTag",
          "type": "string"
        },
        {
          "internalType": "string",
          "name": "siteSafety",
          "type": "string"
        },
        {
          "internalType": "string",
          "name": "metadataURI",
          "type": "string"
        },
        {
          "internalType": "address",
          "name": "voter",
          "type": "address"
        }
      ],
      "name": "delegateReviewCreation",
      "outputs": [],
      "stateMutability": "nonpayable",
      "type": "function"
    },
    {
      "inputs": [
        {
          "internalType": "uint256",
          "name": "tokenId",
          "type": "uint256"
        }
      ],
      "name": "deleteReview",
      "outputs": [],
      "stateMutability": "nonpayable",
      "type": "function"
    },
    {
      "inputs": [
        {
          "internalType": "uint256",
          "name": "tokenId",
          "type": "uint256"
        }
      ],
      "name": "getApproved",
      "outputs": [
        {
          "internalType": "address",
          "name": "",
          "type": "address"
        }
      ],
      "stateMutability": "view",
      "type": "function"
    },
    {
      "inputs": [
        {
          "internalType": "bytes32",
          "name": "role",
          "type": "bytes32"
        }
      ],
      "name": "getRoleAdmin",
      "outputs": [
        {
          "internalType": "bytes32",
          "name": "",
          "type": "bytes32"
        }
      ],
      "stateMutability": "view",
      "type": "function"
    },
    {
      "inputs": [
        {
          "internalType": "bytes32",
          "name": "role",
          "type": "bytes32"
        },
        {
          "internalType": "uint256",
          "name": "index",
          "type": "uint256"
        }
      ],
      "name": "getRoleMember",
      "outputs": [
        {
          "internalType": "address",
          "name": "",
          "type": "address"
        }
      ],
      "stateMutability": "view",
      "type": "function"
    },
    {
      "inputs": [
        {
          "internalType": "bytes32",
          "name": "role",
          "type": "bytes32"
        }
      ],
      "name": "getRoleMemberCount",
      "outputs": [
        {
          "internalType": "uint256",
          "name": "",
          "type": "uint256"
        }
      ],
      "stateMutability": "view",
      "type": "function"
    },
    {
      "inputs": [
        {
          "internalType": "bytes32",
          "name": "role",
          "type": "bytes32"
        },
        {
          "internalType": "address",
          "name": "account",
          "type": "address"
        }
      ],
      "name": "grantRole",
      "outputs": [],
      "stateMutability": "nonpayable",
      "type": "function"
    },
    {
      "inputs": [
        {
          "internalType": "bytes32",
          "name": "role",
          "type": "bytes32"
        },
        {
          "internalType": "address",
          "name": "account",
          "type": "address"
        }
      ],
      "name": "hasRole",
      "outputs": [
        {
          "internalType": "bool",
          "name": "",
          "type": "bool"
        }
      ],
      "stateMutability": "view",
      "type": "function"
    },
    {
      "inputs": [
        {
          "internalType": "address",
          "name": "owner",
          "type": "address"
        },
        {
          "internalType": "address",
          "name": "operator",
          "type": "address"
        }
      ],
      "name": "isApprovedForAll",
      "outputs": [
        {
          "internalType": "bool",
          "name": "",
          "type": "bool"
        }
      ],
      "stateMutability": "view",
      "type": "function"
    },
    {
      "inputs": [],
      "name": "name",
      "outputs": [
        {
          "internalType": "string",
          "name": "",
          "type": "string"
        }
      ],
      "stateMutability": "view",
      "type": "function"
    },
    {
      "inputs": [
        {
          "internalType": "uint256",
          "name": "tokenId",
          "type": "uint256"
        }
      ],
      "name": "ownerOf",
      "outputs": [
        {
          "internalType": "address",
          "name": "",
          "type": "address"
        }
      ],
      "stateMutability": "view",
      "type": "function"
    },
    {
      "inputs": [],
      "name": "pause",
      "outputs": [],
      "stateMutability": "nonpayable",
      "type": "function"
    },
    {
      "inputs": [],
      "name": "paused",
      "outputs": [
        {
          "internalType": "bool",
          "name": "",
          "type": "bool"
        }
      ],
      "stateMutability": "view",
      "type": "function"
    },
    {
      "inputs": [
        {
          "internalType": "uint256",
          "name": "tokenId",
          "type": "uint256"
        }
      ],
      "name": "readMetadata",
      "outputs": [
        {
          "internalType": "string",
          "name": "",
          "type": "string"
        }
      ],
      "stateMutability": "view",
      "type": "function"
    },
    {
      "inputs": [
        {
          "internalType": "bytes32",
          "name": "role",
          "type": "bytes32"
        },
        {
          "internalType": "address",
          "name": "account",
          "type": "address"
        }
      ],
      "name": "renounceRole",
      "outputs": [],
      "stateMutability": "nonpayable",
      "type": "function"
    },
    {
      "inputs": [
        {
          "internalType": "bytes32",
          "name": "role",
          "type": "bytes32"
        },
        {
          "internalType": "address",
          "name": "account",
          "type": "address"
        }
      ],
      "name": "revokeRole",
      "outputs": [],
      "stateMutability": "nonpayable",
      "type": "function"
    },
    {
      "inputs": [
        {
          "internalType": "address",
          "name": "from",
          "type": "address"
        },
        {
          "internalType": "address",
          "name": "to",
          "type": "address"
        },
        {
          "internalType": "uint256",
          "name": "tokenId",
          "type": "uint256"
        }
      ],
      "name": "safeTransferFrom",
      "outputs": [],
      "stateMutability": "nonpayable",
      "type": "function"
    },
    {
      "inputs": [
        {
          "internalType": "address",
          "name": "from",
          "type": "address"
        },
        {
          "internalType": "address",
          "name": "to",
          "type": "address"
        },
        {
          "internalType": "uint256",
          "name": "tokenId",
          "type": "uint256"
        },
        {
          "internalType": "bytes",
          "name": "_data",
          "type": "bytes"
        }
      ],
      "name": "safeTransferFrom",
      "outputs": [],
      "stateMutability": "nonpayable",
      "type": "function"
    },
    {
      "inputs": [
        {
          "internalType": "address",
          "name": "operator",
          "type": "address"
        },
        {
          "internalType": "bool",
          "name": "approved",
          "type": "bool"
        }
      ],
      "name": "setApprovalForAll",
      "outputs": [],
      "stateMutability": "nonpayable",
      "type": "function"
    },
    {
      "inputs": [
        {
          "internalType": "bytes4",
          "name": "interfaceId",
          "type": "bytes4"
        }
      ],
      "name": "supportsInterface",
      "outputs": [
        {
          "internalType": "bool",
          "name": "",
          "type": "bool"
        }
      ],
      "stateMutability": "view",
      "type": "function"
    },
    {
      "inputs": [],
      "name": "symbol",
      "outputs": [
        {
          "internalType": "string",
          "name": "",
          "type": "string"
        }
      ],
      "stateMutability": "view",
      "type": "function"
    },
    {
      "inputs": [
        {
          "internalType": "uint256",
          "name": "index",
          "type": "uint256"
        }
      ],
      "name": "tokenByIndex",
      "outputs": [
        {
          "internalType": "uint256",
          "name": "",
          "type": "uint256"
        }
      ],
      "stateMutability": "view",
      "type": "function"
    },
    {
      "inputs": [
        {
          "internalType": "address",
          "name": "owner",
          "type": "address"
        },
        {
          "internalType": "uint256",
          "name": "index",
          "type": "uint256"
        }
      ],
      "name": "tokenOfOwnerByIndex",
      "outputs": [
        {
          "internalType": "uint256",
          "name": "",
          "type": "uint256"
        }
      ],
      "stateMutability": "view",
      "type": "function"
    },
    {
      "inputs": [
        {
          "internalType": "uint256",
          "name": "tokenId",
          "type": "uint256"
        }
      ],
      "name": "tokenURI",
      "outputs": [
        {
          "internalType": "string",
          "name": "",
          "type": "string"
        }
      ],
      "stateMutability": "view",
      "type": "function"
    },
    {
      "inputs": [],
      "name": "totalSupply",
      "outputs": [
        {
          "internalType": "uint256",
          "name": "",
          "type": "uint256"
        }
      ],
      "stateMutability": "view",
      "type": "function"
    },
    {
      "inputs": [
        {
          "internalType": "address",
          "name": "from",
          "type": "address"
        },
        {
          "internalType": "address",
          "name": "to",
          "type": "address"
        },
        {
          "internalType": "uint256",
          "name": "tokenId",
          "type": "uint256"
        }
      ],
      "name": "transferFrom",
      "outputs": [],
      "stateMutability": "nonpayable",
      "type": "function"
    },
    {
      "inputs": [],
      "name": "unpause",
      "outputs": [],
      "stateMutability": "nonpayable",
      "type": "function"
    },
    {
      "inputs": [
        {
          "internalType": "uint256",
          "name": "tokenId",
          "type": "uint256"
        },
        {
          "internalType": "string",
          "name": "newInfoHash",
          "type": "string"
        }
      ],
      "name": "updateReview",
      "outputs": [],
      "stateMutability": "nonpayable",
      "type": "function"
    }
  ],
  "bytecode": "0x60806040523480156200001157600080fd5b50604051620038e9380380620038e9833981016040819052620000349162000444565b600160025581518290829062000052906003906020850190620002d1565b50805162000068906004906020840190620002d1565b5050600d805460ff191690555062000090600080516020620038c98339815191523362000118565b620000ab600080516020620038c9833981519152806200015b565b620000d5600080516020620038a9833981519152600080516020620038c98339815191526200015b565b620001107fdfe3491e2d998adfabe7c595ac0c21225b49e09a1b1ed0c107b3ec404a7d18ba600080516020620038a98339815191526200015b565b5050620004eb565b6200012f8282620001af60201b620018ca1760201c565b600082815260016020908152604090912062000156918390620018d8620001bf821b17901c565b505050565b600082815260208190526040902060010154819060405184907fbd79b86ffe0ab8e8776151514217cd7cacd52c909f66475c3af44e129f0b00ff90600090a460009182526020829052604090912060010155565b620001bb8282620001df565b5050565b6000620001d6836001600160a01b0384166200027f565b90505b92915050565b6000828152602081815260408083206001600160a01b038516845290915290205460ff16620001bb576000828152602081815260408083206001600160a01b03851684529091529020805460ff191660011790556200023b3390565b6001600160a01b0316816001600160a01b0316837f2f8788117e7eff1d82e926ec794901d17c78024a50270940304540a733656f0d60405160405180910390a45050565b6000818152600183016020526040812054620002c857508154600181810184556000848152602080822090930184905584548482528286019093526040902091909155620001d9565b506000620001d9565b828054620002df90620004ae565b90600052602060002090601f0160209004810192826200030357600085556200034e565b82601f106200031e57805160ff19168380011785556200034e565b828001600101855582156200034e579182015b828111156200034e57825182559160200191906001019062000331565b506200035c92915062000360565b5090565b5b808211156200035c576000815560010162000361565b634e487b7160e01b600052604160045260246000fd5b600082601f8301126200039f57600080fd5b81516001600160401b0380821115620003bc57620003bc62000377565b604051601f8301601f19908116603f01168101908282118183101715620003e757620003e762000377565b816040528381526020925086838588010111156200040457600080fd5b600091505b8382101562000428578582018301518183018401529082019062000409565b838211156200043a5760008385830101525b9695505050505050565b600080604083850312156200045857600080fd5b82516001600160401b03808211156200047057600080fd5b6200047e868387016200038d565b935060208501519150808211156200049557600080fd5b50620004a4858286016200038d565b9150509250929050565b600181811c90821680620004c357607f821691505b60208210811415620004e557634e487b7160e01b600052602260045260246000fd5b50919050565b6133ae80620004fb6000396000f3fe608060405234801561001057600080fd5b506004361061021c5760003560e01c80636297fac111610125578063a217fddf116100ad578063c87b56dd1161007c578063c87b56dd146104b7578063ca15c873146104ca578063d547741f146104dd578063d71e4890146104f0578063e985e9c51461050357600080fd5b8063a217fddf14610476578063a22cb4651461047e578063b1c58bba14610491578063b88d4fde146104a457600080fd5b806370a08231116100f457806370a082311461042d5780638456cb59146104405780639010d07c1461044857806391d148541461045b57806395d89b411461046e57600080fd5b80636297fac1146103df5780636352211e146103f257806366b58c03146104055780636b1f3b5e1461041857600080fd5b80632f2ff15d116101a85780633f4ba83a116101775780633f4ba83a1461039357806342842e0e1461039b57806348960a4f146103ae5780634f6ccce7146103c15780635c975abb146103d457600080fd5b80632f2ff15d146103335780632f745c591461034657806330879cb71461035957806336568abe1461038057600080fd5b8063113ea69f116101ef578063113ea69f1461029e57806318160ddd146102c45780632297017f146102d657806323b872dd146102fd578063248a9ca31461031057600080fd5b806301ffc9a71461022157806306fdde0314610249578063081812fc1461025e578063095ea7b314610289575b600080fd5b61023461022f366004612a09565b61053f565b60405190151581526020015b60405180910390f35b610251610550565b6040516102409190612a7e565b61027161026c366004612a91565b6105e2565b6040516001600160a01b039091168152602001610240565b61029c610297366004612ac6565b61067c565b005b6102b16102ac366004612a91565b610792565b6040516102409796959493929190612af0565b600b545b604051908152602001610240565b6102c87f548ca1357e580e5911409b7e9db73554f54af6b8587e9ad1bb262e2b9da055dd81565b61029c61030b366004612b87565b610b84565b6102c861031e366004612a91565b60009081526020819052604090206001015490565b61029c610341366004612bc3565b610bb6565b6102c8610354366004612ac6565b610bd8565b6102c87fdfe3491e2d998adfabe7c595ac0c21225b49e09a1b1ed0c107b3ec404a7d18ba81565b61029c61038e366004612bc3565b610c6e565b61029c610c90565b61029c6103a9366004612b87565b610d22565b6102516103bc366004612a91565b610d3d565b6102c86103cf366004612a91565b610de2565b600d5460ff16610234565b61029c6103ed366004612c9b565b610e75565b610271610400366004612a91565b611134565b61029c610413366004612db6565b6111ab565b6102c860008051602061335983398151915281565b6102c861043b366004612dfd565b6112b1565b61029c611338565b610271610456366004612e18565b6113c6565b610234610469366004612bc3565b6113e5565b61025161140e565b6102c8600081565b61029c61048c366004612e3a565b61141d565b61029c61049f366004612e76565b6114e2565b61029c6104b2366004612fa2565b611727565b6102516104c5366004612a91565b61175e565b6102c86104d8366004612a91565b6117f5565b61029c6104eb366004612bc3565b61180c565b61029c6104fe366004612a91565b611816565b61023461051136600461301e565b6001600160a01b03918216600090815260086020908152604080832093909416825291909152205460ff1690565b600061054a826118ed565b92915050565b60606003805461055f90613048565b80601f016020809104026020016040519081016040528092919081815260200182805461058b90613048565b80156105d85780601f106105ad576101008083540402835291602001916105d8565b820191906000526020600020905b8154815290600101906020018083116105bb57829003601f168201915b5050505050905090565b6000818152600560205260408120546001600160a01b03166106605760405162461bcd60e51b815260206004820152602c60248201527f4552433732313a20617070726f76656420717565727920666f72206e6f6e657860448201526b34b9ba32b73a103a37b5b2b760a11b60648201526084015b60405180910390fd5b506000908152600760205260409020546001600160a01b031690565b600061068782611134565b9050806001600160a01b0316836001600160a01b031614156106f55760405162461bcd60e51b815260206004820152602160248201527f4552433732313a20617070726f76616c20746f2063757272656e74206f776e656044820152603960f91b6064820152608401610657565b336001600160a01b038216148061071157506107118133610511565b6107835760405162461bcd60e51b815260206004820152603860248201527f4552433732313a20617070726f76652063616c6c6572206973206e6f74206f7760448201527f6e6572206e6f7220617070726f76656420666f7220616c6c00000000000000006064820152608401610657565b61078d8383611912565b505050565b6010602052600090815260409020805481906107ad90613048565b80601f01602080910402602001604051908101604052809291908181526020018280546107d990613048565b80156108265780601f106107fb57610100808354040283529160200191610826565b820191906000526020600020905b81548152906001019060200180831161080957829003601f168201915b50505050509080600101805461083b90613048565b80601f016020809104026020016040519081016040528092919081815260200182805461086790613048565b80156108b45780601f10610889576101008083540402835291602001916108b4565b820191906000526020600020905b81548152906001019060200180831161089757829003601f168201915b5050505050908060020180546108c990613048565b80601f01602080910402602001604051908101604052809291908181526020018280546108f590613048565b80156109425780601f1061091757610100808354040283529160200191610942565b820191906000526020600020905b81548152906001019060200180831161092557829003601f168201915b50505050509080600301805461095790613048565b80601f016020809104026020016040519081016040528092919081815260200182805461098390613048565b80156109d05780601f106109a5576101008083540402835291602001916109d0565b820191906000526020600020905b8154815290600101906020018083116109b357829003601f168201915b5050505050908060040180546109e590613048565b80601f0160208091040260200160405190810160405280929190818152602001828054610a1190613048565b8015610a5e5780601f10610a3357610100808354040283529160200191610a5e565b820191906000526020600020905b815481529060010190602001808311610a4157829003601f168201915b505050505090806005018054610a7390613048565b80601f0160208091040260200160405190810160405280929190818152602001828054610a9f90613048565b8015610aec5780601f10610ac157610100808354040283529160200191610aec565b820191906000526020600020905b815481529060010190602001808311610acf57829003601f168201915b505050505090806006018054610b0190613048565b80601f0160208091040260200160405190810160405280929190818152602001828054610b2d90613048565b8015610b7a5780601f10610b4f57610100808354040283529160200191610b7a565b820191906000526020600020905b815481529060010190602001808311610b5d57829003601f168201915b5050505050905087565b610b8f335b82611980565b610bab5760405162461bcd60e51b815260040161065790613083565b61078d838383611a77565b610bc08282611c22565b600082815260016020526040902061078d90826118d8565b6000610be3836112b1565b8210610c455760405162461bcd60e51b815260206004820152602b60248201527f455243373231456e756d657261626c653a206f776e657220696e646578206f7560448201526a74206f6620626f756e647360a81b6064820152608401610657565b506001600160a01b03919091166000908152600960209081526040808320938352929052205490565b610c788282611c48565b600082815260016020526040902061078d9082611cc2565b610cba7f548ca1357e580e5911409b7e9db73554f54af6b8587e9ad1bb262e2b9da055dd336113e5565b610d185760405162461bcd60e51b815260206004820152602960248201527f4e6574536570696f3a206d75737420686176652061646d696e20726f6c6520746044820152686f20756e706175736560b81b6064820152608401610657565b610d20611cd7565b565b61078d83838360405180602001604052806000815250611727565b6000818152601060205260409020600601805460609190610d5d90613048565b80601f0160208091040260200160405190810160405280929190818152602001828054610d8990613048565b8015610dd65780601f10610dab57610100808354040283529160200191610dd6565b820191906000526020600020905b815481529060010190602001808311610db957829003601f168201915b50505050509050919050565b6000610ded600b5490565b8210610e505760405162461bcd60e51b815260206004820152602c60248201527f455243373231456e756d657261626c653a20676c6f62616c20696e646578206f60448201526b7574206f6620626f756e647360a01b6064820152608401610657565b600b8281548110610e6357610e636130d4565b90600052602060002001549050919050565b600280541415610ec75760405162461bcd60e51b815260206004820152601f60248201527f5265656e7472616e637947756172643a207265656e7472616e742063616c6c006044820152606401610657565b600280557fdfe3491e2d998adfabe7c595ac0c21225b49e09a1b1ed0c107b3ec404a7d18ba610ef68133611d6a565b610f207fdfe3491e2d998adfabe7c595ac0c21225b49e09a1b1ed0c107b3ec404a7d18ba336113e5565b610f845760405162461bcd60e51b815260206004820152602f60248201527f4e6574536570696f3a206d757374206861766520766f74657220726f6c65207460448201526e6f207375626d69742072657669657760881b6064820152608401610657565b6000610f8f600e5490565b9050610f9b3382611dce565b6040805160e0810182528a815260208082018b90528183018a9052606082018990526080820188905260a0820187905282518082018452600080825260c084019190915284815260108252929092208151805192938493610fff9284920190612957565b5060208281015180516110189260018501920190612957565b5060408201518051611034916002840191602090910190612957565b5060608201518051611050916003840191602090910190612957565b506080820151805161106c916004840191602090910190612957565b5060a08201518051611088916005840191602090910190612957565b5060c082015180516110a4916006840191602090910190612957565b5050506000828152600f6020908152604090912085516110c692870190612957565b506110d5600e80546001019055565b81336001600160a01b03167fbf3aecac43badf8f9faced29e91bd3c9e82d11c848f43cf088e7c8d006a8a9fd8c8c8c8c8c8c8c60405161111b9796959493929190612af0565b60405180910390a3505060016002555050505050505050565b6000818152600560205260408120546001600160a01b03168061054a5760405162461bcd60e51b815260206004820152602960248201527f4552433732313a206f776e657220717565727920666f72206e6f6e657869737460448201526832b73a103a37b5b2b760b91b6064820152608401610657565b6111c3600080516020613359833981519152336113e5565b806111d457506111d4335b83611980565b6112335760405162461bcd60e51b815260206004820152602a60248201527f4e6574536570696f3a2063616c6c657220646f206e6f7420686176652074686560448201526920617574686f7269747960b01b6064820152608401610657565b81336001600160a01b03167f0bf37ab2e7f0b608d2e483599c9fa0d6b6cb52a7380f7233287cef777d4d792060106000868152602001908152602001600020600601846040516112849291906130ea565b60405180910390a36000828152601060209081526040909120825161078d92600690920191840190612957565b60006001600160a01b03821661131c5760405162461bcd60e51b815260206004820152602a60248201527f4552433732313a2062616c616e636520717565727920666f7220746865207a65604482015269726f206164647265737360b01b6064820152608401610657565b506001600160a01b031660009081526006602052604090205490565b6113627f548ca1357e580e5911409b7e9db73554f54af6b8587e9ad1bb262e2b9da055dd336113e5565b6113be5760405162461bcd60e51b815260206004820152602760248201527f4e6574536570696f3a206d75737420686176652061646d696e20726f6c6520746044820152666f20706175736560c81b6064820152608401610657565b610d20611de8565b60008281526001602052604081206113de9083611e63565b9392505050565b6000918252602082815260408084206001600160a01b0393909316845291905290205460ff1690565b60606004805461055f90613048565b6001600160a01b0382163314156114765760405162461bcd60e51b815260206004820152601960248201527f4552433732313a20617070726f766520746f2063616c6c6572000000000000006044820152606401610657565b3360008181526008602090815260408083206001600160a01b03871680855290835292819020805460ff191686151590811790915590519081529192917f17307eab39ab6107e8899845ad3d59bd9653f200f220920489ca2b5937696c31910160405180910390a35050565b6000805160206133598339815191526114fb8133611d6a565b611513600080516020613359833981519152336113e5565b61157b5760405162461bcd60e51b815260206004820152603360248201527f4e6574536570696f3a206d7573742068617665206d6f64657261746f7220726f6044820152726c6520746f207375626d69742072657669657760681b6064820152608401610657565b6000611586600e5490565b90506115928382611dce565b6040805160e0810182528b815260208082018c90528183018b9052606082018a90526080820189905260a0820188905282518082018452600080825260c0840191909152848152601082529290922081518051929384936115f69284920190612957565b50602082810151805161160f9260018501920190612957565b506040820151805161162b916002840191602090910190612957565b5060608201518051611647916003840191602090910190612957565b5060808201518051611663916004840191602090910190612957565b5060a0820151805161167f916005840191602090910190612957565b5060c0820151805161169b916006840191602090910190612957565b5050506000828152600f6020908152604090912086516116bd92880190612957565b506116cc600e80546001019055565b81846001600160a01b03167fbf3aecac43badf8f9faced29e91bd3c9e82d11c848f43cf088e7c8d006a8a9fd8d8d8d8d8d8d8d6040516117129796959493929190612af0565b60405180910390a35050505050505050505050565b611730336111ce565b61174c5760405162461bcd60e51b815260040161065790613083565b61175884848484611e6f565b50505050565b6000818152600560205260409020546060906001600160a01b03166117dc5760405162461bcd60e51b815260206004820152602e60248201527f4e6574536570696f3a20746f6b656e55524920717565727920666f72206e6f6e60448201526d32bc34b9ba32b73a103a37b5b2b760911b6064820152608401610657565b6000828152600f602052604090208054610d5d90613048565b600081815260016020526040812061054a90611ea2565b610c788282611eac565b61181f33610b89565b6118915760405162461bcd60e51b815260206004820152603b60248201527f4e6574536570696f3a2063616c6c6572206973206e6f74206f776e6572206e6f60448201527f7220617070726f76656420746f2064656c6574652072657669657700000000006064820152608401610657565b61189a81611ed2565b604051819033907fdff6a326b030476d6cc240c281b441ec1be2bb84fd9c09fdeb176ba805cbd62490600090a350565b6118d48282611f79565b5050565b60006113de836001600160a01b038416611ffd565b60006001600160e01b0319821663780e9d6360e01b148061054a575061054a8261204c565b600081815260076020526040902080546001600160a01b0319166001600160a01b038416908117909155819061194782611134565b6001600160a01b03167f8c5be1e5ebec7d5bd14f71427d1e84f3dd0314c0f7b2291e5b200ac8c7c3b92560405160405180910390a45050565b6000818152600560205260408120546001600160a01b03166119f95760405162461bcd60e51b815260206004820152602c60248201527f4552433732313a206f70657261746f7220717565727920666f72206e6f6e657860448201526b34b9ba32b73a103a37b5b2b760a11b6064820152608401610657565b6000611a0483611134565b9050806001600160a01b0316846001600160a01b03161480611a3f5750836001600160a01b0316611a34846105e2565b6001600160a01b0316145b80611a6f57506001600160a01b0380821660009081526008602090815260408083209388168352929052205460ff165b949350505050565b826001600160a01b0316611a8a82611134565b6001600160a01b031614611af25760405162461bcd60e51b815260206004820152602960248201527f4552433732313a207472616e73666572206f6620746f6b656e2074686174206960448201526839903737ba1037bbb760b91b6064820152608401610657565b6001600160a01b038216611b545760405162461bcd60e51b8152602060048201526024808201527f4552433732313a207472616e7366657220746f20746865207a65726f206164646044820152637265737360e01b6064820152608401610657565b611b5f83838361208c565b611b6a600082611912565b6001600160a01b0383166000908152600660205260408120805460019290611b939084906131bc565b90915550506001600160a01b0382166000908152600660205260408120805460019290611bc19084906131d3565b909155505060008181526005602052604080822080546001600160a01b0319166001600160a01b0386811691821790925591518493918716917fddf252ad1be2c89b69c2b068fc378daa952ba7f163c4a11628f55a4df523b3ef91a4505050565b600082815260208190526040902060010154611c3e8133611d6a565b61078d8383611f79565b6001600160a01b0381163314611cb85760405162461bcd60e51b815260206004820152602f60248201527f416363657373436f6e74726f6c3a2063616e206f6e6c792072656e6f756e636560448201526e103937b632b9903337b91039b2b63360891b6064820152608401610657565b6118d48282612097565b60006113de836001600160a01b0384166120fc565b600d5460ff16611d205760405162461bcd60e51b815260206004820152601460248201527314185d5cd8589b194e881b9bdd081c185d5cd95960621b6044820152606401610657565b600d805460ff191690557f5db9ee0a495bf2e6ff9c91a7834c1ba4fdd244a5e8aa4e537bd38aeae4b073aa335b6040516001600160a01b03909116815260200160405180910390a1565b611d7482826113e5565b6118d457611d8c816001600160a01b031660146121ef565b611d978360206121ef565b604051602001611da89291906131eb565b60408051601f198184030181529082905262461bcd60e51b825261065791600401612a7e565b6118d482826040518060200160405280600081525061238b565b600d5460ff1615611e2e5760405162461bcd60e51b815260206004820152601060248201526f14185d5cd8589b194e881c185d5cd95960821b6044820152606401610657565b600d805460ff191660011790557f62e78cea01bee320cd4e420270b5ea74000d11b0c9f74754ebdbfc544b05a258611d4d3390565b60006113de83836123be565b611e7a848484611a77565b611e86848484846123e8565b6117585760405162461bcd60e51b815260040161065790613260565b600061054a825490565b600082815260208190526040902060010154611ec88133611d6a565b61078d8383612097565b6000611edd82611134565b9050611eeb8160008461208c565b611ef6600083611912565b6001600160a01b0381166000908152600660205260408120805460019290611f1f9084906131bc565b909155505060008281526005602052604080822080546001600160a01b0319169055518391906001600160a01b038416907fddf252ad1be2c89b69c2b068fc378daa952ba7f163c4a11628f55a4df523b3ef908390a45050565b611f8382826113e5565b6118d4576000828152602081815260408083206001600160a01b03851684529091529020805460ff19166001179055611fb93390565b6001600160a01b0316816001600160a01b0316837f2f8788117e7eff1d82e926ec794901d17c78024a50270940304540a733656f0d60405160405180910390a45050565b60008181526001830160205260408120546120445750815460018181018455600084815260208082209093018490558454848252828601909352604090209190915561054a565b50600061054a565b60006001600160e01b031982166380ac58cd60e01b148061207d57506001600160e01b03198216635b5e139f60e01b145b8061054a575061054a826124f5565b61078d83838361251a565b6120a182826113e5565b156118d4576000828152602081815260408083206001600160a01b0385168085529252808320805460ff1916905551339285917ff6391f5c32d9c69d2a47ea670b442974b53935d1edc7fd64eb21e047a839171b9190a45050565b600081815260018301602052604081205480156121e55760006121206001836131bc565b8554909150600090612134906001906131bc565b9050818114612199576000866000018281548110612154576121546130d4565b9060005260206000200154905080876000018481548110612177576121776130d4565b6000918252602080832090910192909255918252600188019052604090208390555b85548690806121aa576121aa6132b2565b60019003818190600052602060002001600090559055856001016000868152602001908152602001600020600090556001935050505061054a565b600091505061054a565b606060006121fe8360026132c8565b6122099060026131d3565b67ffffffffffffffff81111561222157612221612bef565b6040519080825280601f01601f19166020018201604052801561224b576020820181803683370190505b509050600360fc1b81600081518110612266576122666130d4565b60200101906001600160f81b031916908160001a905350600f60fb1b81600181518110612295576122956130d4565b60200101906001600160f81b031916908160001a90535060006122b98460026132c8565b6122c49060016131d3565b90505b600181111561233c576f181899199a1a9b1b9c1cb0b131b232b360811b85600f16601081106122f8576122f86130d4565b1a60f81b82828151811061230e5761230e6130d4565b60200101906001600160f81b031916908160001a90535060049490941c93612335816132e7565b90506122c7565b5083156113de5760405162461bcd60e51b815260206004820181905260248201527f537472696e67733a20686578206c656e67746820696e73756666696369656e746044820152606401610657565b612395838361258c565b6123a260008484846123e8565b61078d5760405162461bcd60e51b815260040161065790613260565b60008260000182815481106123d5576123d56130d4565b9060005260206000200154905092915050565b60006001600160a01b0384163b156124ea57604051630a85bd0160e11b81526001600160a01b0385169063150b7a029061242c9033908990889088906004016132fe565b602060405180830381600087803b15801561244657600080fd5b505af1925050508015612476575060408051601f3d908101601f191682019092526124739181019061333b565b60015b6124d0573d8080156124a4576040519150601f19603f3d011682016040523d82523d6000602084013e6124a9565b606091505b5080516124c85760405162461bcd60e51b815260040161065790613260565b805181602001fd5b6001600160e01b031916630a85bd0160e11b149050611a6f565b506001949350505050565b60006001600160e01b03198216635a05180f60e01b148061054a575061054a826126da565b61252583838361270f565b600d5460ff161561078d5760405162461bcd60e51b815260206004820152602b60248201527f4552433732315061757361626c653a20746f6b656e207472616e73666572207760448201526a1a1a5b19481c185d5cd95960aa1b6064820152608401610657565b6001600160a01b0382166125e25760405162461bcd60e51b815260206004820181905260248201527f4552433732313a206d696e7420746f20746865207a65726f20616464726573736044820152606401610657565b6000818152600560205260409020546001600160a01b0316156126475760405162461bcd60e51b815260206004820152601c60248201527f4552433732313a20746f6b656e20616c7265616479206d696e746564000000006044820152606401610657565b6126536000838361208c565b6001600160a01b038216600090815260066020526040812080546001929061267c9084906131d3565b909155505060008181526005602052604080822080546001600160a01b0319166001600160a01b03861690811790915590518392907fddf252ad1be2c89b69c2b068fc378daa952ba7f163c4a11628f55a4df523b3ef908290a45050565b60006001600160e01b03198216637965db0b60e01b148061054a57506301ffc9a760e01b6001600160e01b031983161461054a565b6001600160a01b03831661276a5761276581600b80546000838152600c60205260408120829055600182018355919091527f0175b7a638427703f0dbe7bb9bbf987a2551717b34e79f33b5b1008d1fa01db90155565b61278d565b816001600160a01b0316836001600160a01b03161461278d5761278d83826127c7565b6001600160a01b0382166127a45761078d81612864565b826001600160a01b0316826001600160a01b03161461078d5761078d8282612913565b600060016127d4846112b1565b6127de91906131bc565b6000838152600a6020526040902054909150808214612831576001600160a01b03841660009081526009602090815260408083208584528252808320548484528184208190558352600a90915290208190555b506000918252600a602090815260408084208490556001600160a01b039094168352600981528383209183525290812055565b600b54600090612876906001906131bc565b6000838152600c6020526040812054600b805493945090928490811061289e5761289e6130d4565b9060005260206000200154905080600b83815481106128bf576128bf6130d4565b6000918252602080832090910192909255828152600c9091526040808220849055858252812055600b8054806128f7576128f76132b2565b6001900381819060005260206000200160009055905550505050565b600061291e836112b1565b6001600160a01b0390931660009081526009602090815260408083208684528252808320859055938252600a9052919091209190915550565b82805461296390613048565b90600052602060002090601f01602090048101928261298557600085556129cb565b82601f1061299e57805160ff19168380011785556129cb565b828001600101855582156129cb579182015b828111156129cb5782518255916020019190600101906129b0565b506129d79291506129db565b5090565b5b808211156129d757600081556001016129dc565b6001600160e01b031981168114612a0657600080fd5b50565b600060208284031215612a1b57600080fd5b81356113de816129f0565b60005b83811015612a41578181015183820152602001612a29565b838111156117585750506000910152565b60008151808452612a6a816020860160208601612a26565b601f01601f19169290920160200192915050565b6020815260006113de6020830184612a52565b600060208284031215612aa357600080fd5b5035919050565b80356001600160a01b0381168114612ac157600080fd5b919050565b60008060408385031215612ad957600080fd5b612ae283612aaa565b946020939093013593505050565b60e081526000612b0360e083018a612a52565b8281036020840152612b15818a612a52565b90508281036040840152612b298189612a52565b90508281036060840152612b3d8188612a52565b90508281036080840152612b518187612a52565b905082810360a0840152612b658186612a52565b905082810360c0840152612b798185612a52565b9a9950505050505050505050565b600080600060608486031215612b9c57600080fd5b612ba584612aaa565b9250612bb360208501612aaa565b9150604084013590509250925092565b60008060408385031215612bd657600080fd5b82359150612be660208401612aaa565b90509250929050565b634e487b7160e01b600052604160045260246000fd5b600067ffffffffffffffff80841115612c2057612c20612bef565b604051601f8501601f19908116603f01168101908282118183101715612c4857612c48612bef565b81604052809350858152868686011115612c6157600080fd5b858560208301376000602087830101525050509392505050565b600082601f830112612c8c57600080fd5b6113de83833560208501612c05565b600080600080600080600060e0888a031215612cb657600080fd5b873567ffffffffffffffff80821115612cce57600080fd5b612cda8b838c01612c7b565b985060208a0135915080821115612cf057600080fd5b612cfc8b838c01612c7b565b975060408a0135915080821115612d1257600080fd5b612d1e8b838c01612c7b565b965060608a0135915080821115612d3457600080fd5b612d408b838c01612c7b565b955060808a0135915080821115612d5657600080fd5b612d628b838c01612c7b565b945060a08a0135915080821115612d7857600080fd5b612d848b838c01612c7b565b935060c08a0135915080821115612d9a57600080fd5b50612da78a828b01612c7b565b91505092959891949750929550565b60008060408385031215612dc957600080fd5b82359150602083013567ffffffffffffffff811115612de757600080fd5b612df385828601612c7b565b9150509250929050565b600060208284031215612e0f57600080fd5b6113de82612aaa565b60008060408385031215612e2b57600080fd5b50508035926020909101359150565b60008060408385031215612e4d57600080fd5b612e5683612aaa565b915060208301358015158114612e6b57600080fd5b809150509250929050565b600080600080600080600080610100898b031215612e9357600080fd5b883567ffffffffffffffff80821115612eab57600080fd5b612eb78c838d01612c7b565b995060208b0135915080821115612ecd57600080fd5b612ed98c838d01612c7b565b985060408b0135915080821115612eef57600080fd5b612efb8c838d01612c7b565b975060608b0135915080821115612f1157600080fd5b612f1d8c838d01612c7b565b965060808b0135915080821115612f3357600080fd5b612f3f8c838d01612c7b565b955060a08b0135915080821115612f5557600080fd5b612f618c838d01612c7b565b945060c08b0135915080821115612f7757600080fd5b50612f848b828c01612c7b565b925050612f9360e08a01612aaa565b90509295985092959890939650565b60008060008060808587031215612fb857600080fd5b612fc185612aaa565b9350612fcf60208601612aaa565b925060408501359150606085013567ffffffffffffffff811115612ff257600080fd5b8501601f8101871361300357600080fd5b61301287823560208401612c05565b91505092959194509250565b6000806040838503121561303157600080fd5b61303a83612aaa565b9150612be660208401612aaa565b600181811c9082168061305c57607f821691505b6020821081141561307d57634e487b7160e01b600052602260045260246000fd5b50919050565b60208082526031908201527f4552433732313a207472616e736665722063616c6c6572206973206e6f74206f6040820152701ddb995c881b9bdc88185c1c1c9bdd9959607a1b606082015260800190565b634e487b7160e01b600052603260045260246000fd5b60408152600080845481600182811c91508083168061310a57607f831692505b602080841082141561312a57634e487b7160e01b86526022600452602486fd5b6040880184905260608801828015613149576001811461315a57613185565b60ff19871682528282019750613185565b60008c81526020902060005b8781101561317f57815484820152908601908401613166565b83019850505b505087860381890152505050505061319d8185612a52565b95945050505050565b634e487b7160e01b600052601160045260246000fd5b6000828210156131ce576131ce6131a6565b500390565b600082198211156131e6576131e66131a6565b500190565b7f416363657373436f6e74726f6c3a206163636f756e7420000000000000000000815260008351613223816017850160208801612a26565b7001034b99036b4b9b9b4b733903937b6329607d1b6017918401918201528351613254816028840160208801612a26565b01602801949350505050565b60208082526032908201527f4552433732313a207472616e7366657220746f206e6f6e20455243373231526560408201527131b2b4bb32b91034b6b83632b6b2b73a32b960711b606082015260800190565b634e487b7160e01b600052603160045260246000fd5b60008160001904831182151516156132e2576132e26131a6565b500290565b6000816132f6576132f66131a6565b506000190190565b6001600160a01b038581168252841660208201526040810183905260806060820181905260009061333190830184612a52565b9695505050505050565b60006020828403121561334d57600080fd5b81516113de816129f056fed76969c94198303022b43658b5f7b56b467ed2db3111b460d49b8147aa2af554a26469706673582212209a7eeb7db78312bf57dd6a4ac5e4a3fe02f791b0a28f79d1b0280e163be32b4064736f6c63430008090033d76969c94198303022b43658b5f7b56b467ed2db3111b460d49b8147aa2af554548ca1357e580e5911409b7e9db73554f54af6b8587e9ad1bb262e2b9da055dd",
  "linkReferences": {},
  "deployedLinkReferences": {}
}